:020000040800F2
:1058000000800120650C0108E9650008EB650008CF
:10581000ED650008EF650008F16500080000000074
:10582000000000000000000000000000F365000818
:10583000F565000800000000F7650008F96500083C
:10584000B50C0108B50C0108B50C0108B50C010830
:10585000B50C0108B50C0108B50C0108B50C010820
:10586000B50C0108B50C0108B50C0108B50C010810
:105870000166000811660008B50C0108B50C0108A6
:10588000B50C0108B50C0108B50C0108216600082B
:10589000316600084166000851660008B50C010831
:1058A000B50C010861660008B50C0108B50C0108CB
:1058B000B50C0108B50C0108B50C0108B50C0108C0
:1058C000B50C0108B50C0108B50C0108B50C0108B0
:1058D000B50C0108B50C0108B50C01087966000883
:1058E000B50C0108B50C0108B50C0108B50C010890
:1058F000B50C0108B50C0108B50C0108B50C010880
:10590000B50C0108B50C0108B50C0108B50C01086F
:10591000B50C0108B50C010889660008B50C010832
:10592000B50C0108B50C0108B50C0108B50C01084F
:10593000B50C0108B50C0108B50C0108B50C01083F
:10594000B50C0108B50C0108B50C0108B50C01082F
:10595000B50C0108B50C0108B50C0108B50C01081F
:10596000B50C0108B50C0108B50C0108B50C01080F
:10597000B50C0108B50C0108B50C010800000000C9
:08598000B50C0108B50C01088B
:10599000034613F8012B002AFBD1181A013870476F
:1059A00001F0FF01102A2BDB10F0070F08D010F8D0
:1059B000013B013A8B422DD010F0070F42B3F6D1D4
:1059C000F0B441EA012141EA014122F007047FF0ED
:1059D00000070023F0E80256083C85EA010586EA44
:1059E000010685FA47F5A3FA87F586FA47F6A5FA80
:1059F00087F68EB9EED1F0BC01F0FF0102F007028C
:105A000032B110F8013B013A83EA010313B1F8D136
:105A10000020704701387047002D06BF3546033817
:105A2000073815F0010F07D1013015F4807F02BF50
:105A3000013015F4C03F0130F0BC0138704700BFA1
:105A400081F0004102E000BF83F0004330B54FEA2F
:105A500041044FEA430594EA050F08BF90EA020F9C
:105A60001FBF54EA000C55EA020C7FEA645C7FEA2F
:105A7000655C00F0E2804FEA5454D4EB5555B8BF52
:105A80006D420CDD2C4480EA020281EA030382EAC3
:105A9000000083EA010180EA020281EA0303362D55
:105AA00088BF30BD11F0004F4FEA01314FF4801C28
:105AB0004CEA113102D0404261EB410113F0004F3A
:105AC0004FEA03334CEA133302D0524263EB4303F1
:105AD00094EA050F00F0A780A4F10104D5F1200E8F
:105AE0000DDB02FA0EFC22FA05F2801841F10001EA
:105AF00003FA0EF2801843FA05F359410EE0A5F1BE
:105B000020050EF1200E012A03FA0EFC28BF4CF0EE
:105B1000020C43FA05F3C01851EBE37101F00045A4
:105B200007D54FF0000EDCF1000C7EEB00006EEBB1
:105B30000101B1F5801F1BD3B1F5001F0CD349083B
:105B40005FEA30004FEA3C0C04F101044FEA445292
:105B500012F5800F80F09A80BCF1004F08BF5FEA19
:105B6000500C50F1000041EB045141EA050130BDF9
:105B70005FEA4C0C404141EB0101013C28BFB1F50B
:105B8000801FE9D291F0000F04BF01460020B1FA56
:105B900081F308BF2033A3F10B03B3F120020CDA29
:105BA0000C3208DD02F1140CC2F10C0201FA0CF007
:105BB00021FA02F10CE002F11402D8BFC2F1200C6C
:105BC00001FA02F120FA0CFCDCBF41EA0C01904022
:105BD000E41AA2BF01EB0451294330BD6FEA04046B
:105BE0001F3C1CDA0C340EDC04F11404C4F1200256
:105BF00020FA04F001FA02F340EA030021FA04F368
:105C000045EA030130BDC4F10C04C4F1200220FABE
:105C100002F001FA04F340EA0300294630BD21FAFC
:105C200004F0294630BD94F0000F83F4801306BFC2
:105C300081F480110134013D4EE77FEA645C18BFB6
:105C40007FEA655C29D094EA050F08BF90EA020F4D
:105C500005D054EA000C04BF1946104630BD91EA45
:105C6000030F1EBF0021002030BD5FEA545C05D148
:105C70004000494128BF41F0004130BD14F5800487
:105C80003CBF01F5801130BD01F0004545F0FE41FB
:105C900041F470014FF0000030BD7FEA645C1ABF30
:105CA000194610467FEA655C1CBF0B46024650EA67
:105CB000013406BF52EA033591EA030F41F4002193
:105CC00030BD00BF90F0000F04BF0021704730B519
:105CD0004FF4806404F132044FF000054FF00001EE
:105CE00050E700BF90F0000F04BF0021704730B5AF
:105CF0004FF4806404F1320410F0004548BF404284
:105D00004FF000013EE700BF42004FEAE2014FEAD8
:105D100031014FEA02701FBF12F07F4393F07F4FB3
:105D200081F06051704732F07F4208BF704793F0B6
:105D30007F4F04BF41F40021704730B54FF46074C9
:105D400001F0004521F000411CE700BF50EA0102CC
:105D500008BF704730B54FF000050AE050EA010275
:105D600008BF704730B511F0004502D5404261EBE5
:105D700041014FF4806404F132045FEA915C3FF426
:105D8000D8AE4FF003025FEADC0C18BF03325FEAC3
:105D9000DC0C18BF033202EBDC02C2F1200300FA74
:105DA00003FC20FA02F001FA03FE40EA0E0021FA99
:105DB00002F11444BDE600BF70B54FF0FF0C4CF487
:105DC000E06C1CEA11541DBF1CEA135594EA0C0F39
:105DD00095EA0C0F00F0DEF82C4481EA030621EA74
:105DE0004C5123EA4C5350EA013518BF52EA0335AF
:105DF00041F4801143F4801338D0A0FB02CE4FF061
:105E00000005E1FB02E506F00042E0FB03E54FF090
:105E10000006E1FB03569CF0000F18BF4EF0010E88
:105E2000A4F1FF04B6F5007F64F5407404D25FEA84
:105E30004E0E6D4146EB060642EAC62141EA555137
:105E40004FEAC52040EA5E504FEACE2EB4F1FD0C79
:105E500088BFBCF5E06F1ED8BEF1004F08BF5FEAF7
:105E6000500E50F1000041EB045170BD06F00046A9
:105E700046EA010140EA020081EA0301B4EB5C0456
:105E8000C2BFD4EB0C0541EA045170BD41F480114E
:105E90004FF0000E013C00F3AB8014F1360FDEBF73
:105EA000002001F0004170BDC4F10004203C35DA4F
:105EB0000C341BDC04F11404C4F1200500FA05F3D2
:105EC00020FA04F001FA05F240EA020001F0004273
:105ED00021F0004110EBD37021FA04F642EB0601E9
:105EE0005EEA430E08BF20EAD37070BDC4F10C0413
:105EF000C4F1200500FA04F320FA05F001FA04F2D7
:105F000040EA020001F0004110EBD37041F10001C2
:105F10005EEA430E08BF20EAD37070BDC4F12005CD
:105F200000FA05F24EEA020E20FA04F301FA05F235
:105F300043EA020321FA04F001F0004121FA04F2DD
:105F400020EA020000EBD3705EEA430E08BF20EAAD
:105F5000D37070BD94F0000F0FD101F000464000E7
:105F600041EB010111F4801F08BF013CF7D041EA69
:105F7000060195F0000F18BF704703F0004652006D
:105F800043EB030313F4801F08BF013DF7D043EA3E
:105F90000603704794EA0C0F0CEA135518BF95EAF4
:105FA0000C0F0CD050EA410618BF52EA4306D1D17B
:105FB00081EA030101F000414FF0000070BD50EA9A
:105FC000410606BF1046194652EA430619D094EA24
:105FD0000C0F02D150EA013613D195EA0C0F05D10E
:105FE00052EA03361CBF104619460AD181EA030162
:105FF00001F0004141F0FE4141F470014FF000001A
:1060000070BD41F0FE4141F4780170BD70B54FF0B4
:10601000FF0C4CF4E06C1CEA11541DBF1CEA135534
:1060200094EA0C0F95EA0C0F00F0A7F8A4EB050416
:1060300081EA030E52EA03354FEA013100F088800D
:106040004FEA03334FF0805545EA131343EA1263D6
:106050004FEA022245EA111545EA10654FEA00268B
:106060000EF000419D4208BF964244F1FD0404F544
:10607000407402D25B084FEA3202B61A65EB0305A0
:106080005B084FEA32024FF480104FF4002CB6EB5D
:10609000020E75EB030E22BFB61A754640EA0C00DD
:1060A0005B084FEA3202B6EB020E75EB030E22BF1D
:1060B000B61A754640EA5C005B084FEA3202B6EB5E
:1060C000020E75EB030E22BFB61A754640EA9C001D
:1060D0005B084FEA3202B6EB020E75EB030E22BFED
:1060E000B61A754640EADC0055EA060E18D04FEAAB
:1060F000051545EA16754FEA06164FEAC30343EA4B
:1061000052734FEAC2025FEA1C1CC0D111F4801F17
:106110000BD141EA00014FF000004FF0004CB6E710
:1061200011F4801F04BF01430020B4F1FD0C88BFAF
:10613000BCF5E06F3FF6AFAEB5EB030C04BFB6EBBA
:10614000020C5FEA500C50F1000041EB045170BDAD
:106150000EF0004E4EEA113114EB5C04C2BFD4EBDA
:106160000C0541EA045170BD41F480114FF0000E5E
:10617000013C90E645EA060E8DE60CEA135594EADA
:106180000C0F08BF95EA0C0F3FF43BAF94EA0C0FDD
:106190000AD150EA01347FF434AF95EA0C0F7FF452
:1061A00025AF104619462CE795EA0C0F06D152EAA6
:1061B00003353FF4FDAE1046194622E750EA41068A
:1061C00018BF52EA43067FF4C5AE50EA41047FF49B
:1061D0000DAF52EA43057FF4EBAE12E74FF0FF3C00
:1061E00006E000BF4FF0010C02E000BF4FF0010CD1
:1061F0004DF804CD4FEA410C7FEA6C5C4FEA430C4A
:1062000018BF7FEA6C5C1BD001B050EA410C0CBF98
:1062100052EA430C91EA030F02BF90EA020F0020FA
:10622000704710F1000F91EA030F58BF994208BF61
:1062300090422CBFD8176FEAE37040F0010070471E
:106240004FEA410C7FEA6C5C02D150EA013C07D175
:106250004FEA430C7FEA6C5CD6D152EA033CD3D0C0
:106260005DF8040B704700BF8446104662468C46BA
:106270001946634600E000BF01B5FFF7B7FF0028ED
:1062800048BF10F1000F01BD4DF808EDFFF7F4FF16
:106290000CBF012000205DF808FB00BF4DF808EDA1
:1062A000FFF7EAFF34BF012000205DF808FB00BFC4
:1062B0004DF808EDFFF7E0FF94BF012000205DF8E6
:1062C00008FB00BF4DF808EDFFF7CEFF94BF01209B
:1062D00000205DF808FB00BF4DF808EDFFF7C4FF94
:1062E00034BF012000205DF808FB00BF4FEA4102E7
:1062F00012F5001215D211D56FF47873B3EB625218
:1063000012D94FEAC12343F0004343EA505311F03E
:10631000004F23FA02F018BF404270474FF00000D0
:10632000704750EA013005D111F0004008BF6FF00E
:10633000004070474FF00000704700BF4A0011D284
:1063400012F5001211D20DD56FF47873B3EB6252CF
:106350000ED44FEAC12343F0004343EA505323FADB
:1063600002F070474FF00000704750EA013002D150
:106370004FF0FF3070474FF00000704753B94AB9F3
:10638000002908BF00281CBF4FF0FF314FF0FF303D
:1063900000F0E2B8ADF1080C6DE904CE0BF0A2FC00
:1063A000DDF804E0DDE9022304B0704700F13401B8
:1063B00091E838009C46A6464CF8045D90E8FF0F33
:1063C000E54600BD90EC210B704700BF80EC210B2F
:1063D000704700BF90EC200B704700BF80EC200B93
:1063E000704700BFD0EC200B704700BFC0EC200B03
:1063F000704700BFF0EC0201F0EC0211F0EC02215A
:10640000F0EC0231F0EC0241F0EC0251F0EC0261F0
:10641000F0EC0271F0EC0281F0EC0291F0EC02A1E0
:10642000F0EC02B1F0EC02C1F0EC02D1F0EC02E1D0
:10643000F0EC02F1704700BFE0EC0201E0EC021169
:10644000E0EC0221E0EC0231E0EC0241E0EC025130
:10645000E0EC0261E0EC0271E0EC0281E0EC029120
:10646000E0EC02A1E0EC02B1E0EC02C1E0EC02D110
:10647000E0EC02E1E0EC02F1704700BFB0FC01810A
:10648000B0FC0191B0FC01A1B0FC01B1704700BFAC
:10649000A0FC0181A0FC0191A0FC01A1A0FC01B124
:1064A000704700BFEC4600B52DE900502DE9FF1FF5
:1064B0004FF000032DE90C0001A90BF0CDFEDDF833
:1064C00040E012B0704700BFEC4600B52DE9005027
:1064D0002DE9FF1F4FF000032DE90C0001A90BF07F
:1064E000F7FEDDF840E012B0704700BFEC4600B5A3
:1064F0002DE900502DE9FF1F4FF000032DE90C009E
:1065000001A90BF007FFDDF840E012B0704700BFB3
:10651000EC4600B52DE900502DE9FF1F4FF00003B8
:106520002DE90C0001AB0BF0CBFEDDF840E012B022
:10653000704700BFEC4600B52DE900502DE9FF1F64
:106540004FF000032DE90C0001AA0BF03BFFDDF832
:1065500040E012B0704700BF704700BF0348044BD3
:10656000834202D0034B03B1184770473804002020
:1065700038040020000000000548064B1B1AD90F04
:1065800001EBA301491002D0034B03B11847704738
:1065900038040020380400200000000010B5064C2C
:1065A000237843B9FFF7DAFF044B13B10448AFF384
:1065B00000800123237010BD38040020000000007B
:1065C000C02D010808B5054B1BB105490548AFF3BF
:1065D0000080BDE80840FFF7CFBF00BF000000000B
:1065E0003C040020C02D0108FEE7FEE7FEE7FEE7C1
:1065F000FEE770477047704708B500F079FF08BDA7
:1066000008B5024802F0F8F908BD00BFA804002050
:1066100008B5024802F0F0F908BD00BFF004002000
:1066200008B5024800F003FE08BD00BFE0080020E6
:1066300008B5024800F0FBFD08BD00BFE0080020DF
:1066400008B5024800F0F3FD08BD00BFE0080020D7
:1066500008B5024800F0EBFD08BD00BFE0080020CF
:1066600008B5034802F04DFD024802F04AFD08BD9E
:106670005C0800204806002008B5024803F046FAEE
:1066800008BD00BF3805002008B5024802F039FDFA
:1066900008BD00BFE006002082B00A4B1A6E42F02F
:1066A00001021A661A6E02F001020092009A9A6DB7
:1066B00042F080529A659B6D03F080530193019BD9
:1066C00002B070470010024000B589B00023039368
:1066D00004930593069307930268244B9A4202D0D1
:1066E00009B05DF804FB03F5D6339A6D42F00072F1
:1066F0009A659A6D02F000720192019ADA6C42F08A
:106700000202DA64DB6C03F002030293029B4FF493
:1067100040730393022304930323069309230793EF
:1067200003A9134801F030FF00221146132002F0A4
:106730007BFA132002F088FA00221146142002F09E
:1067400073FA142002F080FA00221146152002F09C
:106750006BFA152002F078FA00221146162002F09A
:1067600063FA162002F070FABAE700BF0064004036
:106770000004004810B5AAB00446002125912691D6
:10678000279128912991882203A80AF075FE226892
:10679000174B9A4201D02AB010BD4FF400730393F7
:1067A00003A801F0C7FC00BB124B9A6D42F00042F7
:1067B0009A659A6D02F000420192019ADA6C42F0F9
:1067C0000402DA64DB6C03F004030293029B0523EA
:1067D00025930223269300232793289301232993AB
:1067E00025A9054801F0D0FED5E708F031FADBE72E
:1067F000007C0040001002400008004830B58DB019
:1068000000230793089309930A930B930368424A62
:10681000934207D0B3F1804F2CD0404A93425ED0D0
:106820000DB030BD3E4B1A6E42F400621A661A6E0D
:1068300002F400620092009ADA6C42F00102DA641B
:10684000DB6C03F001030193019B4FF4407307934A
:106850000223089301230B9307A94FF0904001F006
:1068600093FE00221146192002F0DEF9192002F0F1
:10687000EBF9D5E703F504339A6D42F001029A650E
:106880009A6D02F001020292029ADA6C42F0010261
:10689000DA64DA6C02F001020392039ADA6C42F0D5
:1068A0000202DA64DB6C03F002030493049B4FF4EE
:1068B000004307930225089501240B9407A94FF084
:1068C000904001F061FE0823079308950023099387
:1068D0000A930B9407A9134801F056FEA0E7104B4A
:1068E0009A6D42F004029A659A6D02F004020592D4
:1068F000059ADA6C42F00202DA64DB6C03F0020300
:106900000693069BC0230793022308930B9307A9C2
:10691000044801F039FE83E7002C014000080040E4
:10692000001002400004004884B00368154A9342F6
:1069300007D0154A93420FD0144A934217D004B09F
:106940007047134B9A6D42F002029A659B6D03F0FB
:1069500002030193019BF2E70D4B9A6D42F008028E
:106960009A659B6D03F008030293029BE7E7084BCF
:106970001A6E42F400521A661B6E03F4005303931E
:10698000039BDCE700040040000C004000340140A1
:106990000010024000B583B00368174A934205D047
:1069A000164A934215D003B05DF804FB144B9A6D60
:1069B00042F010029A659B6D03F010030093009B58
:1069C00000221146362002F02FF9362002F03CF961
:1069D000E9E70B4B1A6E42F400321A661B6E03F4A1
:1069E00000330193019B00221146192002F01CF98B
:1069F000192002F029F9D6E70010004000440140B8
:106A00000010024000B589B000230393049305935E
:106A1000069307930368254A934208D0244A934279
:106A200019D0244A93422BD009B05DF804FB224BC5
:106A3000DA6C42F00202DA64DB6C03F002030093CA
:106A4000009B0323039302230493079303A91B488A
:106A500001F09AFDE8E7184BDA6C42F00102DA64C3
:106A6000DB6C03F001030193019B0F2303930223CB
:106A70000493079303A94FF0904001F085FDD3E7FD
:106A80000D4BDA6C42F00402DA64DB6C03F00403B1
:106A90000293029B4FF47073039302230493032326
:106AA000079303A9064801F06FFDBDE7000400400D
:106AB000000C004000340140001002400004004877
:106AC00000080048F0B5ADB0044600212791289198
:106AD00029912A912B91882205A80AF0CDFC2368E0
:106AE000574A934204D0574A934244D02DB0F0BD48
:106AF000102305934FF48073179305A801F01AFB38
:106B0000002835D1504B9A6D42F480129A659A6DE7
:106B100002F480120092009ADA6C42F00402DA6405
:106B2000DA6C02F004020192019ADA6C42F0080277
:106B3000DA64DB6C03F008030293029B4FF480538A
:106B40002793022728970026299603252A950824AB
:106B50002B9427A93D4801F017FD0423279328977C
:106B600029962A952B9427A9394801F00DFDBDE7F8
:106B700008F06EF8C6E7042305931023159305A8C3
:106B800001F0D8FA002851D12F4B9A6D42F480229F
:106B90009A659A6D02F480220392039ADA6C42F0AD
:106BA0000402DA64DB6C03F004030493049B4FF4E7
:106BB00040632793022628960025299503232A93CC
:106BC00007232B9327A9214801F0DEFC2148224B03
:106BD000036046608560C56080230361456185610F
:106BE000C561056201F0FEFD18BB1A4B63679C622C
:106BF0001A481B4B03600223436010238360002369
:106C0000C3608022026143618361C361036201F05A
:106C1000E9FD88B9114B23679C62002211462720A9
:106C200002F002F8272002F00FF85FE708F010F8F2
:106C3000AAE708F00DF8D8E708F00AF8EAE700BF7D
:106C4000005000400048004000100240000800488A
:106C5000000C0048F004002030000240A80400208E
:106C60001C000240002800F0A18038B5044690F8CE
:106C70002030D3B12268136843F00103136000F0A1
:106C800043FC054623685A6812F0010F10D100F04A
:106C90003BFC401B0A28F5D9636A43F40033636266
:106CA000052384F82030012038BDFFF70DFDE1E712
:106CB0001A6822F002021A6000F026FC05462368DA
:106CC0005A6812F0020F0DD000F01EFC401B0A287B
:106CD000F5D9636A43F400336362052384F82030F6
:106CE0000120E1E7227E012A3DD01A6822F08002CD
:106CF0001A60637E012B3BD02268136823F04003A7
:106D00001360A37E012B39D02268136823F020037F
:106D10001360E37E012B37D02268136843F0100321
:106D20001360237F012B35D02268136823F00803FA
:106D30001360637F012B33D02268136823F00403B0
:106D40001360A368E2681343226913436269134323
:106D50006268013A21681343CB610020606201231D
:106D600084F82030A0E71A6842F080021A60C0E779
:106D70002268136843F040031360C2E72268136877
:106D800043F020031360C4E72268136823F0100364
:106D90001360C6E72268136843F008031360C8E76E
:106DA0002268136843F004031360CAE701207047A8
:106DB000026890F82030013BDBB2012B05D9436A11
:106DC00043F4802343620120704730B4D2F800328C
:106DD00043F00103C2F800324B6903F01F030120A6
:106DE00000FA03F3D2F81C026FEA030C20EA030056
:106DF000C2F81C02C869B0B9D2F80C020CEA000053
:106E0000C2F80C028C884869CD6844EA05444830D1
:106E100042F830400C8848698D6844EA054448309F
:106E200002EBC0004460C86901281BD0886980BBA0
:106E3000D2F804020CEA0000C2F80402086970BB30
:106E4000D2F814020CEA0000C2F81402096A0129FF
:106E50002BD0D2F8003223F00103C2F80032002018
:106E600030BC7047D2F80C021843C2F80C028C8870
:106E700048690D6844EA0544483042F830408C893E
:106E800048698D6844EA0544483002EBC00044601C
:106E9000CCE7D2F804021843C2F80402CEE7D2F8D5
:106EA00014021843C2F81402D0E7D2F81C120B43A4
:106EB000C2F81C32CDE770B5044690F82050EDB210
:106EC000012D06D0436A43F400234362012528467E
:106ED00070BD022380F820300268136823F001039C
:106EE000136000F011FB064623685B6813F0010F86
:106EF0000CD000F009FB831B0A2BF5D9636A43F41D
:106F000000336362052384F82030E0E700256562E2
:106F1000DDE738B5044690F82030DBB2022B05D00F
:106F2000436A43F480134362012038BD026813684A
:106F300043F00103136000F0E7FA054623685A683E
:106F400012F0010F0DD100F0DFFA431B0A2BF5D927
:106F5000636A43F400336362052384F82030012020
:106F6000E3E71A6822F002021A60012384F8203055
:106F70000020DAE730B590F820C00468A4680CF16E
:106F8000FF3C5FFA8CFCBCF1010F62D814F0E05FAB
:106F900059D0C4F3016C012404FA0CF41C608B6812
:106FA000002B3DD10D68CB68046843EA45550CF1D0
:106FB00018031B01E55003680C690CF1180E03EB74
:106FC0000E135C600B7D012B35D0D17993791B04B6
:106FD00043EA0163517943EA0123147901682343A9
:106FE00001EB0C11C1F88C31D17893781B0443EA82
:106FF0000163517843EA0123117802680B4302EBE5
:107000000C12C2F8883102680CF1180C4FEA0C1C03
:1070100052F80C3043F0010342F80C3000201DE020
:107020004C6843EAC403CC6823430CF118042401E0
:1070300005682B51BFE7036803EB0E13596841F451
:1070400080715960C1E7436A43F400134362012031
:1070500004E0436A43F480234362012030BD90F88A
:107060002030013BDBB2012B01D9002070470368BF
:10707000986810F0806000D001209A6812F0006FCC
:1070800000D001309B6813F0805FEFD00130704773
:1070900090F820C00CF1FF3C5FFA8CFCBCF1010FB2
:1070A00000F2A58030B451B90468E46814F0030F0D
:1070B00010D1436A43F40013436201207EE0046868
:1070C000246914F0030F05D1436A43F400134362AB
:1070D000012073E0056801F11B0424012C5904F020
:1070E00004049460002C6BD1056801F11B04240199
:1070F0002C59640D1460046801F11B0C4FEA0C1C40
:1071000054F80C4004F00204D4600468A444DCF891
:10711000045015F0080F5BD008241461046801F1D5
:107120001B0C04EB0C146468C4F30724946104681A
:1071300004EB0C146468240C5461026802EB011225
:10714000D2F8B8211A70026802EB0112D2F8B82105
:10715000C2F307225A70026802EB0112D2F8B8217A
:10716000C2F307429A70026802EB0112D2F8B8210A
:10717000120EDA70026802EB0112D2F8BC211A7109
:10718000026802EB0112D2F8BC21C2F307225A7145
:10719000026802EB0112D2F8BC21C2F307429A71D5
:1071A000026802EB0112D2F8BC21120EDA71C1B9E9
:1071B0000268D36843F02003D360002030BC7047DE
:1071C000056801F11B0424012C59E408546092E77E
:1071D00001F11B0504EB0514646804F00F0414614D
:1071E0009CE70268136943F020031361E5E7436AF3
:1071F00043F4802343620120704790F82030013B24
:10720000DBB2012B05D9436A43F48023436201209A
:107210007047026853690B43536100207047704701
:1072200070477047704770477047704770472DE947
:10723000F84F054603685C69D3F804809F68D3F86B
:107240000CA0D3F81090D3F818B014F001063BD07E
:1072500017F0010616D001229A6017F0020F08D12C
:1072600017F0040F0CD117F0080606D04FF4805623
:1072700008E003F069FD002604E0FFF7D0FF01E01D
:107280004FF4006617F4807F0DD02B684FF48072A6
:107290009A6017F4007F40F0968017F4806F00F03A
:1072A000968046F4005617F4803F0DD02B684FF4BB
:1072B00080329A6017F4003F40F0938017F4802FDB
:1072C00000F0938046F4004614F0080F07D01AF03F
:1072D000100F04D046F400762B681022DA6014F008
:1072E000040F03D01AF0080F40F0898014F0020F49
:1072F00005D02B68DB6813F0030F40F0878014F093
:10730000400F07D019F0100F04D046F480662B68A8
:1073100010221A6114F0200F02D019F0080F79D151
:1073200014F0100F04D02B681B6913F0030F78D1F1
:1073300014F4003F02D018F0100F76D114F4803FFF
:1073400002D018F0080F77D114F4004F37D018F09E
:10735000040F31D014F4807F04D01BF0010F01D052
:1073600046F0010614F4007F04D01BF0020F01D098
:1073700046F0020614F4806F04D01BF0040F01D015
:1073800046F0040614F4006F16D01BF0700B13D0F7
:10739000BBF1400F66D056D8BBF1200F5CD0BBF1DB
:1073A000300F5CD0BBF1100F01D146F008062A68FF
:1073B000936923F0700393612B6804225A60002EB6
:1073C00056D1BDE8F88F284603F0C8FC6BE717F4E8
:1073D000006F02D046F4804665E72846FFF720FF9D
:1073E00061E7284603F0C4FC6EE717F4002F02D0D3
:1073F00046F4803668E72846FFF713FF64E72B68FA
:107400000822DA602846FFF70DFF6FE7284603F0F1
:1074100061FC74E72B6808221A612846FFF703FF16
:107420007EE7284603F05CFC82E72B6810225A6056
:107430002846FFF7F9FE81E72B6808225A602846A4
:10744000FFF7F3FE80E7BBF1500F0ED0BBF1600FEA
:10745000ADD146F48076AAE746F01006A7E746F0DD
:107460002006A4E746F04006A1E746F080069EE726
:107470006B6A33436B622846FFF7D8FEA1E7000032
:10748000104B1B780BB90120704710B504464FF420
:107490007A70B0FBF3F30C4A1068B0FBF3F001F024
:1074A000DBFB68B90F2C01D901200AE0002221463C
:1074B0004FF0FF3001F0B8FB044B1C60002000E0EF
:1074C000012010BD040000200C0000200800002056
:1074D00010B5032001F096FB0F20FFF7D1FF10B18C
:1074E0000124204610BD0446FFF7D6F8F9E7000056
:1074F000034B1B78034A11680B441360704700BFAD
:107500000400002054040020014B1868704700BF9D
:107510005404002038B50446FFF7F6FF0546B4F1E1
:10752000FF3F02D0044B1B781C44FFF7EDFF401BCC
:10753000A042FAD338BD00BF0400002030B583B0AC
:107540000446204B9B6D13F0805F0BD001F0B6FA20
:10755000B0F5007F17D0802C1FD82DD0702C2DD0E7
:1075600000211BE0174DAB6D43F08053AB65AB6D55
:1075700003F080530193019B01F0A0FAAB6D23F05F
:107580008053AB65E4E7802C03D9A02C03D90221FA
:1075900004E0002102E0012100E003210A4A13680F
:1075A00023F007030B431360136803F007038B42B8
:1075B00006D1002003B030BD0221EFE70121EDE745
:1075C0000120F7E70010024000200240284A93689B
:1075D000D26802F0030213F00C030AD00C2B06D081
:1075E000042B1FD0082B20D00020024610E0012AD7
:1075F000F6D11F4A126812F0080F0CD11C4AD2F8BB
:107600009420C2F303221B4951F8222043B10020E9
:107610000C2B0DD07047164A1268C2F30312F2E722
:107620001046F5E714480022F2E714480022EFE77D
:107630000F4BDB6803F00303022B03D0032B02D1B3
:107640000E4A00E00C4A0A49CB68C3F30213013327
:10765000C868C0F3062002FB00F0B0FBF3F0CB6873
:10766000C3F3416301335B00B0FBF3F0D2E700BF2B
:1076700000100240D82D01080024F40000127A0006
:10768000002800F0F182F0B583B00446964B9D6867
:1076900005F00C05DE6806F00306036813F0100F12
:1076A0005AD0E5B10C2D18D0A369002B00F0BB8097
:1076B0008D4A136843F001031360FFF725FF074667
:1076C000894B1B6813F0020F40F09A80FFF71CFFF4
:1076D000C01B0228F4D90320D1E2012EE4D1824B51
:1076E0001B6813F0020F03D0A369002B00F0BE82C9
:1076F000206A7D4B1B6813F0080F5BD07A4B1B6828
:1077000003F0F00398425CD8774B1A6842F0080205
:107710001A601A6822F0F002216A0A431A605A6855
:1077200022F47F42E16942EA01225A60002D60D0D2
:10773000FFF74CFF6C4B9B68C3F303136B4AD35C9E
:1077400003F01F03D8406A4B18606A4B1868FFF7B4
:1077500097FE002840F09382236813F0010F00F099
:107760008180082D75D00C2D71D06368B3F5803FF2
:1077700000F09780B3F5A02F00F099805A4B1A685B
:1077800022F480321A601A6822F480221A60636838
:10779000002B00F09980FFF7B7FE0746524B1B689D
:1077A00013F4003F5ED1FFF7AFFEC01B6428F5D98C
:1077B000032064E24C4BD3F894301B0903F0F00330
:1077C000A0E7FFF7BBFE002840F05282464B1A6844
:1077D00042F008021A601A6822F0F002216A0A4395
:1077E0001A605A6822F47F42E16942EA01225A6033
:1077F0009EE7206AFFF7A2FE002899D001203EE212
:10780000394B1A6842F008021A601A6822F0F00236
:10781000216A0A431A605A6822F47F42E16942EA07
:1078200001225A6098E7304A136823F0010313607D
:10783000FFF76AFE07462C4B1B6813F0020F8BD034
:10784000FFF762FEC01B0228F5D9032017E2032EC2
:107850008BD1254B1B6813F4003F03D06368002BCA
:1078600000F00882236813F0020F58D0042D45D091
:107870000C2D41D0E368002B77D01B4A136843F4EA
:1078800080731360FFF740FE0646174B1B6813F426
:10789000806F61D1FFF738FE801B0228F5D90320E5
:1078A000EDE1114A136843F4803313606FE703F18D
:1078B0008043A3F53C331A6842F480221A601A68A8
:1078C00042F480321A6062E7FFF71EFE0746064B5D
:1078D0001B6813F4003FC5D0FFF716FEC01B6428D9
:1078E000F5D90320CBE100BF00100240102E0108A3
:1078F0000C00002008000020022EBBD1A34B1B6807
:1079000013F4806F03D0E368002B00F0B5819F4A29
:10791000536823F0F853216943EA016353602368F5
:1079200013F0080F4CD063699BB3984AD2F8943097
:1079300043F00103C2F89430FFF7E6FD0646934B8F
:10794000D3F8943013F0020F3AD1FFF7DDFD801B1E
:107950000228F4D9032092E18C4A536823F0F853AB
:10796000216943EA01635360D9E7884A136823F425
:1079700080731360FFF7C8FD0646844B1B6813F441
:10798000806FCCD0FFF7C0FD801B0228F5D9032003
:1079900075E17E4AD2F8943023F00103C2F89430A6
:1079A000FFF7B2FD0646794BD3F8943013F0020F7F
:1079B00006D0FFF7A9FD801B0228F4D903205EE161
:1079C000236813F0040F7AD0704B9B6D13F0805F27
:1079D00036D16E4B9A6D42F080529A659B6D03F0E2
:1079E00080530193019B0126694B1B6813F4807F30
:1079F00028D0A368012B39D0052B3FD0634BD3F897
:107A0000902022F00102C3F89020D3F8902022F0B9
:107A10000402C3F89020A368002B3DD0FFF774FD4B
:107A200007465A4BD3F8903013F0020F46D1FFF7B8
:107A30006BFDC01B41F288339842F2D903201EE14E
:107A40000026D1E7524A136843F480731360FFF7AE
:107A50005BFD07464E4B1B6813F4807FC9D1FFF7CF
:107A600053FDC01B0228F5D9032008E1474AD2F88C
:107A7000903043F00103C2F89030CCE7434BD3F889
:107A8000902042F00402C3F89020D3F8902042F0F6
:107A90000102C3F89020BEE7FFF736FD07463B4BD7
:107AA000D3F8903013F0020F08D0FFF72DFDC01B64
:107AB00041F288339842F2D90320E0E0EEB9A36A9C
:107AC000002B00F0DB80022B1DD00C2D00F0DD80A0
:107AD0002E4A136823F080731360FFF715FD0446E8
:107AE0002A4B1B6813F0007F00F0B780FFF70CFDF6
:107AF000001B0228F4D90320C1E0244A936D23F02F
:107B000080539365DBE7214BDB6803F00301E26AF6
:107B100091420FD00C2D00F0B4801C4B1B6813F069
:107B2000806F40F0B080194B1B6813F0805F31D03C
:107B30000120A4E003F07002216B0139B2EB011FB8
:107B4000E8D103F4FE42616BB2EB012FE2D103F402
:107B50000031A26B073A18BF01229142DAD103F437
:107B6000C001E26B5208013AB1EB425FD2D103F09F
:107B7000C063226C5208013AB3EB426FCAD1034B87
:107B80001B6813F0007F4ED0002078E00010024008
:107B9000007000403E4A136823F080731360FFF7C3
:107BA000B3FC05463A4B1B6813F0007F06D0FFF785
:107BB000ABFC401B0228F5D9032060E0344AD368AF
:107BC00034491940E36A206B013843EA0013606BC3
:107BD00043EA0023E06B4008013843EA4053206C3D
:107BE0004008013843EA4063A06B000943EA404380
:107BF0001943D160136843F080731360D36843F076
:107C00008073D360FFF780FC0446214B1B6813F0A0
:107C1000007F06D1FFF778FC001B0228F5D903206E
:107C20002DE000202BE01A4B1A6842F080721A6097
:107C3000DA6842F08072DA60FFF766FC0446144BA3
:107C40001B6813F0007F06D1FFF75EFC031B022BBD
:107C5000F5D9032013E0002011E00D4AD1680E4B46
:107C60000B40D36000200AE001207047012006E0AD
:107C7000012004E0012002E0012000E0002003B028
:107C8000F0BD0120FBE70120F9E70120F7E700BF85
:107C9000001002408C809DF9FCFFEEFE002800F0F1
:107CA000AF8070B50D460446594B1B6803F00703BF
:107CB0008B420BD2564A136823F007030B43136021
:107CC000136803F007038B4240F09C80236813F095
:107CD000020F0CD0A2684F4B9B6803F0F0039A424E
:107CE00005D94C498B6823F0F0031A438A60236856
:107CF00013F0010F39D06368032B09D0022B26D073
:107D000063BB444A126812F0020F06D1012076E0EC
:107D1000404A126812F0007F76D03E498A6822F00D
:107D2000030213438B60FFF7EFFB0646394B9B685A
:107D300003F00C036268B3EB820F16D0FFF7E4FB8D
:107D4000801B41F288339842F0D9032057E0314A32
:107D5000126812F4003FE0D1012050E02D4A126871
:107D600012F4806FD9D1012049E0236813F0020F8B
:107D70000CD0A268274B9B6803F0F0039A4205D20F
:107D800024498B6823F0F0031A438A60204B1B6858
:107D900003F00703AB420AD91D4A136823F0070317
:107DA0002B431360136803F00703AB422ED1236803
:107DB00013F0040F06D0174A936823F4E063E168D8
:107DC0000B439360236813F0080F07D0114A9368A0
:107DD00023F46053216943EAC1039360FFF7F6FB84
:107DE0000C4B9B68C3F303130B4AD35C03F01F03D4
:107DF000D8400A4B18600A4B1868FFF741FB70BD6A
:107E0000012070470120FAE70120F8E70120F6E79A
:107E10000020024000100240102E01080C0000203B
:107E200008000020014B1868704700BF0C000020BC
:107E300008B5FFF7F7FF054B9B68C3F30223044A1D
:107E4000D35C03F01F03D84008BD00BF0010024000
:107E5000082E010808B5FFF7E5FF054B9B68C3F343
:107E6000C223044AD35C03F01F03D84008BD00BFFF
:107E700000100240082E0108F8B504460D46594B83
:107E8000DB6813F0030F18D0564BDB6803F00303D5
:107E90000268934202D001263046F8BD002A00F065
:107EA0009D80504BDB68C3F3021301334268934259
:107EB00001D00126F0E7002619E00368022B56D016
:107EC000032B5BD0012B40F08B80464A126812F0E6
:107ED000020F5FD04348C26822F073026168013923
:107EE00043EA01131343C3600026002ED4D13D4A58
:107EF000136823F080631360FFF706FB0746394BD6
:107F00001B6813F0006F05D0FFF7FEFAC31B022BAE
:107F1000F5D90326002EBFD1002D3DD131490B6983
:107F200023F41F3323F44073A068E268120952045B
:107F300042EA002213430B612A4A136843F080632C
:107F40001360FFF7E1FA0546264B1B6813F0006F3C
:107F500005D1FFF7D9FA401B0228F5D90326002ED8
:107F60009AD1204A1369A1690B43136194E71D4A12
:107F7000126812F4806FADD101268DE7194A12689C
:107F800012F4003FA6D1174A126812F4802FA1D133
:107F9000012681E70126A8E7012D0FD011480269CB
:107FA00022F0C06222F4FE42A16863695B08013BD3
:107FB0005B0643EA01231A430261BDE709480269EF
:107FC00022F4C00222F4FE42A16823695B08013B4F
:107FD0005B0543EA01231A430261ADE701265BE733
:107FE000012659E700100240F8B504460D46504BF3
:107FF000DB6813F0030F18D04D4BDB6803F003036D
:108000000268934202D001263046F8BD002A00F0F3
:108010008A80474BDB68C3F3021301334268934203
:1080200001D00126F0E7002618E00368022B55D0A6
:10803000032B5AD0012B78D13D4A126812F0020F5F
:108040005FD03B48C26822F073026168013943EA9D
:1080500001131343C3600026002ED5D1344A1368A0
:1080600023F080531360FFF74FFA0746304B1B682D
:1080700013F0005F05D0FFF747FAC31B022BF5D9B9
:108080000326002EC0D1002D3DD129494B6923F490
:108090001F3323F44073A068E2681209520442EAD5
:1080A000002213434B61224A136843F0805313604C
:1080B000FFF72AFA05461E4B1B6813F0005F05D137
:1080C000FFF722FA401B0228F5D90326002E9BD188
:1080D000174A536961690B43536195E7144A126863
:1080E00012F4806FADD101268EE7114A126812F4A6
:1080F000003FA6D10E4A126812F4802FA1D10126AA
:1081000082E70126A8E70A48426922F0C06222F409
:10811000FE42A16823695B08013B5B0643EA012339
:108120001A434261BFE701266EE701266CE700BFF4
:10813000001002402DE9F04182B00446036813F4B8
:10814000006F33D0436EB3F5000F15D00CD823B3B6
:10815000B3F5800F05D100212030FFF745FF06461B
:1081600020E001273E4623E0B3F5400F01D1002671
:1081700008E001273E461BE05E4AD36843F48033A3
:10818000D36000265B4AD2F8883023F44003616E46
:108190000B43C2F8883000270AE000210430FFF7C3
:1081A0006BFE0646002EEDD0374601E000273E4626
:1081B000236813F4805F30D0A36EB3F1007F1FD02B
:1081C0000DD81BB3B3F1807F06D1002104F120004C
:1081D000FFF70AFF064605E001273E461DE0B3F122
:1081E000407F0AD1C6B9434AD2F8883023F04073A1
:1081F000A16E0B43C2F888300FE001273E460CE029
:108200003C4AD36843F48033D360EBE70021201D60
:10821000FFF732FE0646E5E73746236813F4003FD2
:1082200071D0344B9B6D13F0805F4ED1314B9A6D02
:1082300042F080529A659B6D03F080530193019B3D
:108240004FF001082C4A136843F480731360FFF762
:108250005BF90546284B1B6813F4807F05D1FFF7B7
:1082600053F9401B0228F5D90326002E46D1214B95
:10827000D3F8903013F4407316D0D4F884209A4287
:1082800012D01C4AD2F8903023F44073D2F89010E8
:1082900041F48031C2F89010D2F8901021F480316E
:1082A000C2F89010C2F8903013F0010F10D1002ED8
:1082B00040F027810F4AD2F8903023F44073D4F86D
:1082C00084100B43C2F8903019E04FF00008B9E772
:1082D000FFF71AF90546074BD3F8903013F0020F59
:1082E000E5D1FFF711F9401B41F288339842F2D9EA
:1082F0000326DCE700100240007000403746B8F16A
:10830000000F40F00081236813F0010F08D09D4A50
:10831000D2F8883023F00303A16B0B43C2F88830F6
:10832000236813F0020F08D0964AD2F8883023F061
:108330000C03E16B0B43C2F88830236813F0040F81
:1083400008D0904AD2F8883023F03003216C0B43D8
:10835000C2F88830236813F0080F08D0894AD2F891
:10836000883023F0C003616C0B43C2F88830236867
:1083700013F0100F08D0834AD2F8883023F44073EA
:10838000A16C0B43C2F88830236813F0200F08D08B
:108390007C4AD2F8883023F44063E16C0B43C2F886
:1083A0008830236813F4007F08D0764AD2F88830EA
:1083B00023F44023E16D0B43C2F88830236813F4A3
:1083C000806F08D06F4AD2F8883023F44013216EB2
:1083D0000B43C2F88830236813F0400F08D0694A75
:1083E000D2F8883023F44053216D0B43C2F8883013
:1083F000236813F0800F08D0624AD2F8883023F443
:108400004043616D0B43C2F88830236813F4807FCA
:1084100008D05C4AD2F8883023F44033A16D0B4376
:10842000C2F88830236813F4005F0FD0554AD2F8A1
:10843000883023F04063E16E0B43C2F88830E36E6E
:10844000B3F1006F65D0B3F1806F67D0236813F488
:10845000002F0FD04B4AD2F8883023F04063216FB1
:108460000B43C2F88830236FB3F1006F5ED0B3F1D5
:10847000806F60D0236813F4802F0FD0414AD2F868
:10848000883023F04063616F0B43C2F88830636F1C
:10849000B3F1006F57D0B3F1806F59D0236813F454
:1084A000804F0FD0374AD2F8883023F04053A16F65
:1084B0000B43C2F88830A36FB3F1805F50D0B3F1A3
:1084C000005F55D0236813F4004F08D02D4AD2F82E
:1084D000883023F08043E16F0B43C2F88830236873
:1084E00013F4803F09D0274AD2F8883023F00043A4
:1084F000D4F880100B43C2F88830384602B0BDE88B
:10850000F0813746FBE61F4A936D23F08053936555
:10851000F9E6D36843F48013D36097E70121201D67
:10852000FFF7AAFC002891D007468FE7D36843F4F1
:108530008013D3609EE70121201DFFF79DFC0028DA
:1085400098D0074696E7D36843F48013D360A5E735
:108550000121201DFFF790FC00289FD007469DE7D2
:108560000221201DFFF788FC0028ABD00746A9E7B1
:10857000022104F12000FFF737FD0028A2D00746B2
:10858000A0E700BF00100240F0B583B000236BE00D
:1085900085685E000324B44025EA0405CC68B44035
:1085A0002C438460456825EA0C054C68C4F300142C
:1085B0009C402C43446069E0C56A25EA0C05C4F37D
:1085C000C0049C402C43C46266E0DD08083550F8C6
:1085D000254003F0070C4FEA8C0C4FF00F0E0EFAFB
:1085E0000CFE24EA0E0E0C6904FA0CF444EA0E04A4
:1085F00040F8254067E0062400E0002404FA0EF469
:108600002C430CF1020C5C4D45F82C405B4CA568EA
:10861000D44325EA02064F6817F4801F01D042EACE
:108620000506564DAE60ED6804EA05064F6817F47E
:10863000001F01D042EA0506504DEE606D6804EA65
:1086400005064F6817F4003F01D042EA05064B4D7E
:108650006E602D682C404E6816F4803F01D042EACF
:108660000504464A146001330A6832FA03F400F044
:1086700081804FF0010C0CFA03FC1CEA0202F2D0DC
:108680004C6804F00304013C012C81D94C6804F0CF
:10869000030EBEF1030F8FD04C6804F00304032CCB
:1086A0000CD0C4685D004FF0030C0CFA05FC24EA02
:1086B0000C0C8C68AC4044EA0C04C4604C6804F0B8
:1086C0000304022C81D004684FEA430E4FF0030CE0
:1086D0000CFA0EFC24EA0C0C4C6804F0030404FAB7
:1086E0000EF444EA0C0404604C6814F4403FBAD021
:1086F000234C256E45F001052566246E04F0010427
:108700000194019C4FEA930C0CF102051A4C54F8A9
:10871000255003F0030E4FEA8E0E0F2404FA0EF4D8
:1087200025EA0405B0F1904F3FF467AF154CA04225
:1087300016D004F58064A04214D004F58064A042F1
:1087400012D004F58064A04210D004F58064A042E9
:108750000ED004F58064A0423FF44DAF07244DE7EE
:1087600001244BE7022449E7032447E7042445E7B3
:10877000052443E703B0F0BD0000014000040140C0
:1087800000100240000400480369194201D0012092
:108790007047002070470AB181617047816270475D
:1087A000436901EA030221EA030141EA02418161CE
:1087B000704730B4446C04F01C0C012404FA0CF42F
:1087C000056C6C60046863608368102B05D00368D7
:1087D00099600368DA6030BC704703689A60036888
:1087E000D960F8E7002871D010B403460168384A10
:1087F000914248D8374A0A443748A0FB020212097E
:1088000092005A64354A1A64022283F825200868C7
:108810006FF30E109A68DC6822431C6922435C697E
:1088200022439C692243DC6922431C6A224302439F
:108830000A609A68B2F5804F1BD0196C274A9142A2
:108840002CD0264AD2F8A814586C00F01C0C0F202B
:1088500000FA0CF021EA0001C2F8A814D2F8A8141A
:1088600058685C6C04F01C0C00FA0CF00143C2F870
:10887000A8140020D863012283F8252083F824005F
:108880005DF8044B7047164A0A441348A0FB0202E5
:10889000120992005A64134A1A64B5E7D2F8A81074
:1088A000586C00F01C0C0F2000FA0CF021EA0001BB
:1088B000C2F8A810D2F8A81058685C6C04F01C0C20
:1088C00000FA0CF00143C2F8A810D2E7012070476B
:1088D00007040240F8FFFDBFCDCCCCCC0000024025
:1088E000F8FBFDBF0004024038B5044690F82400B0
:1088F000012832D0012084F8240094F82500C0B269
:10890000012804D0002384F82430022038BD02203E
:1089100084F825000020E0632568286820F0010025
:1089200028602046FFF745FF236B5BB12268136880
:1089300043F00E0313602268136843F001031360D1
:108940000020E3E72268136823F004031360226821
:10895000136843F00A031360EDE70220D6E790F8AE
:108960002530DBB2022B06D00423C363002380F83A
:108970002430012070470268136823F00E0313604F
:108980000268136823F001031360436C03F01C03B7
:10899000016C012202FA03F34B6080F825200023CA
:1089A00080F824301846704708B590F82530DBB2BF
:1089B000022B03D00423C363012008BD026813689F
:1089C00023F00E0313600268136823F001031360A1
:1089D000436C03F01C03016C012202FA03F34B60A9
:1089E00080F82520002380F82430836B13B198474A
:1089F0000020E2E70020E0E738B5036C196804685E
:108A00002568436C03F01C0304229A400A4215D0E7
:108A100015F0040F12D0236813F0200F03D1236840
:108A200023F004032360436C03F01C02016C042355
:108A300093404B60036B03B1984738BD02229A40C4
:108A40000A421CD015F0020F19D0236813F0200F32
:108A500006D1236823F00A032360012380F8253020
:108A6000436C03F01C02016C022393404B60002313
:108A700080F82430C36A002BDFD09847DDE7082256
:108A800002FA03F30B42D8D015F0080FD5D02368B3
:108A900023F00E032360436C03F01C03016C0122DE
:108AA00002FA03F34B60C26380F82520002380F8AC
:108AB0002430436B002BC0D09847BEE7024B1868A8
:108AC00000F4C060704700BF00700040B0F5007F48
:108AD0000FD01F4B1B6803F4C063B3F5806F34D015
:108AE0001B4A136823F4C06343F4806313600020BF
:108AF0007047174B1B6803F4C063B3F5007F20D0A9
:108B0000134A136823F4C06343F400731360114BDA
:108B10001B68322202FB03F30F4AA2FB03239B0CC8
:108B2000013300E0013B0A4A526912F4806F01D020
:108B3000002BF7D1064B5B6913F4806F03D1002043
:108B4000704700207047032070470020704700BF27
:108B5000007000400C00002083DE1B43002807DB70
:108B600000F01F02400901239340024A42F82030DE
:108B7000704700BF00E100E0002808DB0901C9B22E
:108B800000F1604000F5614080F80013704700F08C
:108B90000F000901C9B2014B1954704714ED00E0F0
:108BA00000B500F00700C0F1070CBCF1040F28BFAE
:108BB0004FF0040C031D062B0FD9C31E4FF0FF3ED0
:108BC0000EFA0CF021EA000199400EFA03FE22EAA7
:108BD0000E0241EA02005DF804FB0023EEE700000C
:108BE000BFF34F8F0549CA6802F4E062044B134398
:108BF000CB60BFF34F8F00BFFDE700BF00ED00E08B
:108C00000400FA05074AD36823F4E0631B041B0C35
:108C1000000200F4E060034343F0BF6343F4003319
:108C2000D360704700ED00E010B50446054BD868EE
:108C3000C0F30220FFF7B4FF01462046FFF79CFF78
:108C400010BD00BF00ED00E008B5FFF787FF08BDCD
:108C500008B5FFF7C5FF00000138B0F1807F0BD2E7
:108C60004FF0E0235861054AF02182F823100020DC
:108C7000986107221A6170470120704700ED00E0FB
:108C800084460C4B1B680C4AA2FB03239B0B4FF43E
:108C90007A7202FB03F3002006E0DCF80020126881
:108CA00031EA020204D01BB1013BF6D10320F4E704
:108CB000704700BF0C0000205917B7D1002854D0CE
:108CC000F8B5044690F83630002B44D0022384F8DF
:108CD00036302568EB686168012903D0A26AB2F5D5
:108CE000000F01D123F01E0362694FF6FF7082422C
:108CF00003D023F4604323F0C0031D481840A36849
:108D00000B43266A3343666A3343A66A33430343FD
:108D100019B9E069276938430343012902D0B6F540
:108D2000000F03D1E168206901430B434FF6FF7147
:108D30008A4204D0A1690A43E1690A431343EB6004
:108D400023680C4A93420BD0E26A1A62012384F82A
:108D500036300020F8BD80F83530FDF70BFDB5E763
:108D6000E26A216B0A431A62F0E70120704700BFF4
:108D7000FEF119FF007C004038B504460B46022284
:108D800080F836200568E96821F00601C2680A43C8
:108D9000EA600168CA6842F08072CA6001680A69C4
:108DA00042F001020A610268102151600268936179
:108DB000FFF766FF032808D02268136943F0040315
:108DC0001361012384F83630002038BD0368D86968
:108DD0007047000030B4026A036A23F001030362A3
:108DE0004468836923F4803323F073030D681D43C3
:108DF00022F002028B6813431C4A90420FD002F506
:108E0000006290420BD002F54062904207D002F51A
:108E10008062904203D002F58062904205D123F037
:108E20000803CA681A4322F00403104A90420FD084
:108E300002F5006290420BD002F54062904207D0EA
:108E400002F58062904203D002F58062904205D123
:108E500024F440744A6922438C6914434460856158
:108E60004A684263036230BC704700BF002C014077
:108E700030B4036A026A22F4807202624468C269F2
:108E800022F4803222F073020D68154323F400733C
:108E90008A6843EA0223184A904203D002F500622E
:108EA000904206D123F40063CA6843EA022323F404
:108EB0008063114A90420FD002F5006290420BD0BD
:108EC00002F54062904207D002F58062904203D0E2
:108ED00002F58062904207D124F440524C6942EA84
:108EE00004128C6942EA04144460C5614A68C26392
:108EF000036230BC704700BF002C014030B4036AED
:108F0000026A22F4805202624468C26922F08072CE
:108F100022F4E6420D6842EA052223F400538D68EC
:108F200043EA05330F4DA8420FD005F50065A8426E
:108F30000BD005F54065A84207D005F58065A8422D
:108F400003D005F58065A84204D124F480444D691E
:108F500044EA85144460C2614A680264036230BC1A
:108F6000704700BF002C014030B4036A026A22F44B
:108F7000803202624468426D22F4803222F0700234
:108F80000D68154323F400338A6843EA02430F4A0D
:108F900090420FD002F5006290420BD002F5406281
:108FA000904207D002F58062904203D002F58062C1
:108FB000904204D124F480344A6944EA0224446093
:108FC00045654A688265036230BC7047002C0140E9
:108FD00030B4036A026A22F4801202624468426D6D
:108FE00022F0807222F4E0420D6842EA052223F466
:108FF00000138D6843EA05530F4DA8420FD005F5C5
:109000000065A8420BD005F54065A84207D005F5DC
:109010008065A84203D005F58065A84204D124F4F8
:1090200080244D6944EA8524446042654A68C265EB
:10903000036230BC704700BF002C014090F83D3007
:10904000DBB2012B36D1022380F83D300268D368B1
:1090500043F00103D3600368194A93421CD0B3F173
:10906000804F19D0A2F59432934215D002F5806258
:10907000934211D002F5806293420DD002F59432F2
:10908000934209D002F54062934205D01A6842F03B
:1090900001021A600020704799680A4A0A40062AAD
:1090A0000AD0B2F5803F09D01A6842F001021A6076
:1090B0000020704701207047002070470020704753
:1090C000002C0140070001000268D36823F001036F
:1090D000D3600368196A41F21112114208D1196A6A
:1090E00040F24442114203D11A6822F001021A6090
:1090F000012380F83D30002070477047704770476B
:10910000704770B504460368DE681D6915F0020FEC
:1091100010D016F0020F0DD06FF002021A61012379
:10912000037703689B6913F0030F64D0FFF7E6FF32
:109130000023237715F0040F12D016F0040F0FD080
:1091400023686FF004021A610223237723689B6966
:1091500013F4407F55D02046FFF7D0FF002323773C
:1091600015F0080F12D016F0080F0FD023686FF01B
:1091700008021A61042323772368DB6913F0030FC5
:1091800046D02046FFF7BAFF0023237715F0100FD3
:1091900012D016F0100F0FD023686FF010021A6172
:1091A000082323772368DB6913F4407F37D02046F8
:1091B000FFF7A4FF0023237715F0010F02D016F06C
:1091C000010F33D115F4025F02D016F0800F35D1B4
:1091D00015F4807F02D016F0800F37D115F0400FC4
:1091E00002D016F0400F39D115F0200F02D016F042
:1091F000200F3BD170BDFFF780FF2046FFF77FFFB8
:1092000096E72046FFF779FF2046FFF778FFA5E7AE
:109210002046FFF772FF2046FFF771FFB4E72046B4
:10922000FFF76BFF2046FFF76AFFC3E723686FF085
:1092300001021A61204606F04FFDC3E723686FF470
:1092400002521A61204600F0DEFBC1E723686FF48A
:1092500080721A61204600F0D7FBBFE723686FF0E9
:1092600040021A612046FFF74BFFBDE723686FF00D
:1092700020021A61204600F0C5FBBBE70368344AB0
:10928000904212D0B0F1804F0FD0A2F594329042AC
:109290000BD002F58062904207D002F580629042C6
:1092A00003D002F59432904203D123F070034A6850
:1092B0001343274A90421ED0B0F1804F1BD0A2F535
:1092C0009432904217D002F58062904213D002F59A
:1092D000806290420FD002F5943290420BD002F59A
:1092E0004062904207D002F58062904203D002F5BE
:1092F0008062904203D123F44073CA68134323F081
:1093000080034A69134303608B68C3620B688362FE
:109310000F4B98420FD003F5006398420BD003F532
:109320004063984207D003F58063984203D003F569
:109330008063984201D10B69036301234361036990
:1093400013F0010F03D0036923F001030361704799
:10935000002C014060B310B5044690F83D3013B3C3
:10936000022384F83D30214651F8040BFFF786FFB5
:10937000012384F8483084F83E3084F83F3084F884
:10938000403084F8413084F8423084F8433084F827
:10939000443084F8453084F8463084F8473084F807
:1093A0003D30002010BD80F83C30FDF7F3FAD7E7E0
:1093B0000120704760B310B5044690F83D3013B3F8
:1093C000022384F83D30214651F8040BFFF756FF85
:1093D000012384F8483084F83E3084F83F3084F824
:1093E000403084F8413084F8423084F8433084F8C7
:1093F000443084F8453084F8463084F8473084F8A7
:109400003D30002010BD80F83C30FDF78DFAD7E7E5
:1094100001207047002853D0F8B50D46044690F857
:109420003D30002B47D0022384F83D3022689368FA
:1094300023F4A03323F007039360214651F8040B73
:10944000FFF71CFF21688B688A690E6A2868184339
:1094500022F4407222F00302AB68AF6943EA0723AB
:10946000134323F47C4323F0FC03EA68EF6942EAE8
:1094700007221A432B6A1B032F6943EA071313437E
:1094800026F0AA066A686D6942EA051232438860CE
:1094900021688B6123681A62012384F8483084F8BC
:1094A0003E3084F83F3084F8443084F8453084F806
:1094B0003D300020F8BD80F83C30FDF79FF9B2E761
:1094C0000120704730B4036A026A22F0100202627F
:1094D0004468826922F0807222F4E6420D6842EA12
:1094E000052223F020038D6843EA0513174DA84297
:1094F00003D005F50065A84206D123F08003CD68AE
:1095000043EA051323F04003104DA8420FD005F5A0
:109510000065A8420BD005F54065A84207D005F5C7
:109520008065A84203D005F58065A84207D124F4E0
:10953000406C4C694CEA840C8C694CEA84044460AD
:1095400082614A688263036230BC7047002C01402C
:1095500038B590F83C30012B00F0958004460D465C
:10956000012380F83C30142A00F28880DFE802F002
:109570000B8686861F8686863486868648868686FD
:109580005D86868671000068FFF724FC2268936977
:1095900043F0080393612268936923F00403936105
:1095A0002268936929690B439361002067E0006892
:1095B000FFF788FF2268936943F400639361226890
:1095C000936923F48063936122689369296943EA6C
:1095D00001239361002052E00068FFF749FC2268F4
:1095E000D36943F00803D3612268D36923F00403ED
:1095F000D3612268D36929690B43D36100203EE01F
:109600000068FFF77BFC2268D36943F40063D361F1
:109610002268D36923F48063D3612268D3692969FE
:1096200043EA0123D361002029E00068FFF79CFC96
:109630002268536D43F0080353652268536D23F08D
:10964000040353652268536D29690B435365002059
:1096500015E00068FFF7BCFC2268536D43F400631B
:1096600053652268536D23F4806353652268536DFC
:10967000296943EA01235365002000E0012000230B
:1096800084F83C3038BD0220FCE701F01F014FF0A8
:10969000010C0CFA01FC036A23EA0C030362036A5F
:1096A0008A4013430362704710B5044610293CD822
:1096B000DFE801F0093B3B3B1F3B3B3B263B3B3B91
:1096C0002D3B3B3B340090F83E30DBB2013B18BFF2
:1096D0000123002B40F0928010297DD8DFE801F0B3
:1096E0002C7C7C7C6C7C7C7C707C7C7C747C7C7C2E
:1096F000780090F83F30DBB2013B18BF0123E8E768
:1097000090F84030DBB2013B18BF0123E1E790F84D
:109710004130DBB2013B18BF0123DAE790F8423059
:10972000DBB2013B18BF0123D3E790F84330DBB233
:10973000013B18BF0123CCE7022384F83E3001220D
:109740002068FFF7A2FF23682F4A93420FD002F54B
:10975000006293420BD002F54062934207D002F5BB
:109760008062934203D002F58062934203D15A6C27
:1097700042F400425A642368234A934230D0B3F142
:10978000804F2DD0A2F59432934229D002F5806209
:10979000934225D002F58062934221D002F59432A3
:1097A00093421DD002F54062934219D01A6842F0EC
:1097B00001021A60002022E0022384F83F30BEE755
:1097C000022384F84030BAE7022384F84130B6E738
:1097D000022384F84230B2E7022384F84330AEE734
:1097E00099680A4A0A40062A0AD0B2F5803F09D091
:1097F0001A6842F001021A60002000E0012010BD4A
:109800000020FCE70020FAE7002C014007000100DF
:1098100038B5044690F83E00C0B294F83F3094F852
:109820004420D2B294F845C00D46B1B9012849D1BF
:10983000012A48D1022384F83E3084F844307DB3B5
:10984000042D39D0012200212068FFF71EFF0122DC
:1098500004212068FFF719FF27E0DBB25FFA8CFCD8
:10986000042912D0012833D1012B2CD1012A31D166
:10987000BCF1010F30D1022384F83E3084F83F3030
:1098800084F8443084F84530D9E7012B1CD1BCF171
:10989000010F1BD1022384F83F3084F84530CEE716
:1098A000012200212068FFF7F0FE2268136843F0D0
:1098B00001031360002006E0012204212068FFF765
:1098C000E4FEF2E7012038BD0120FCE71846FAE784
:1098D0000120F8E71846F6E71046F4E790F83C2038
:1098E000012A42D030B40346012280F83C200222F3
:1098F00080F83D200068426884681D4DA84203D06E
:1099000005F50065A84203D122F470024D682A4390
:1099100022F070020D682A4342601A68144882429D
:1099200016D0B2F1804F13D0A0F5943082420FD000
:1099300000F5806082420BD000F58060824207D043
:1099400000F59430824203D000F54060824204D199
:1099500024F08004896821439160012283F83D202E
:10996000002083F83C0030BC70470220704700BFE5
:10997000002C014090F83C30012B3ED010B4024640
:10998000012380F83C30CB6823F44073886803439C
:1099900023F480634868034323F4006308680343A7
:1099A00023F480530869034323F4005348690343B5
:1099B00023F48043886A034323F47023886943EACD
:1099C000004310680E4CA04203D004F50064A0428E
:1099D0000CD123F470034C6A43EA045323F08073E0
:1099E000CC69234323F00073096A0B4343640020CE
:1099F00082F83C005DF8044B70470220704700BFBE
:109A0000002C0140704770477047026852E8003FE1
:109A100023F0C00342E800310029F6D12023C367B8
:109A20007047026852E8003F23F4907342E8003127
:109A30000029F6D1026802F1080353E8003F23F041
:109A40000103083242E800310029F3D1036E012BF3
:109A500006D02023C0F88030002303668366704759
:109A6000026852E8003F23F0100342E80031002969
:109A7000F6D1EEE7704708B5026852E8003F23F0E0
:109A8000400342E800310029F6D12023C3670023B8
:109A9000C366FFF7EFFF08BD70477047704738B5E2
:109AA000846AE26FD4F8805023689B6813F0800FBB
:109AB00001D0212A10D023689B6813F0400F01D0F9
:109AC000222D10D0D4F8843043F01003C4F8843031
:109AD0002046FFF7E3FF38BD0023A4F852302046AC
:109AE000FFF793FFE7E70023A4F85A302046FFF77B
:109AF00098FFE7E708B5806A0023A0F85A30A0F87D
:109B00005230FFF7CBFF08BD7047000070B5044628
:109B10000268D3691168906840F60F0C13EA0C0FC5
:109B20000AD113F0200F0DD011F0200F0AD0A36E30
:109B30000BB3204698471EE010F001051CD1AD4E36
:109B4000314219D1256E012D00F0A48013F4801F3D
:109B500003D010F4800F40F0468113F0800F03D043
:109B600011F0800F40F04A8113F0400F03D011F044
:109B7000400F40F04A8170BD13F0010F09D011F47D
:109B8000807F06D001201062D4F884200243C4F8FC
:109B9000842013F0020F09D045B122680220106220
:109BA000D4F8842042F00402C4F8842013F0040F97
:109BB00009D045B1226804201062D4F8842042F014
:109BC0000202C4F8842013F0080F0BD011F0200F0C
:109BD00000D13DB1226808201062D4F884200243ED
:109BE000C4F8842013F4006F0CD011F0806F09D0FA
:109BF00022684FF400601062D4F8842042F0200202
:109C0000C4F88420D4F88420002AB4D013F0200FA4
:109C100006D011F0200F03D0A36E0BB12046984759
:109C2000D4F8842023689B6813F0400F02D112F00F
:109C3000280F28D02046FFF7F4FE23689B6813F016
:109C4000400F1CD0226802F1080353E8003F23F0C4
:109C50004003083242E800310029F3D1636F53B169
:109C6000654A9A63606FFEF79FFE002883D0606F9D
:109C7000836B98477FE72046FFF710FF7BE720467E
:109C8000FFF70CFF77E72046FFF708FF0023C4F833
:109C9000843070E713F0100F3FF458AF11F0100F3D
:109CA0003FF454AF1023136223689B6813F0400FF6
:109CB0005FD0616F0A6853689BB2002B49D0B4F83B
:109CC0005800984245D9A4F85A300B681B6813F025
:109CD000200F31D1226852E8003F23F4807342E81C
:109CE00000310029F6D1226802F1080353E8003F51
:109CF00023F00103083242E800310029F3D1226841
:109D000002F1080353E8003F23F04003083242E821
:109D100000310029F3D12023C4F8803000232366CA
:109D2000226852E8003F23F0100342E80031002986
:109D3000F6D1606FFEF713FE02236366B4F8581085
:109D4000B4F85A309BB2C91A89B22046FFF7DCFE3C
:109D500011E7B4F8581099427FF40DAF136813F06F
:109D6000200F3FF408AF022363662046FFF7CCFEC6
:109D700001E7B4F85810B4F85A309BB2C91A89B246
:109D8000B4F85A309BB2002B3FF4F5AE00293FF4F3
:109D9000F2AE226852E8003F23F4907342E80030AC
:109DA0000028F6D1226802F1080353E8003F23F0AF
:109DB0000103083242E800300028F3D12023C4F820
:109DC000803000232366A366226852E8003F23F018
:109DD000100342E800300028F6D1022363662046D3
:109DE000FFF792FEC7E64FF480131362204600F09F
:109DF0009DFBC0E620010004F59A0008E36E002BED
:109E00003FF4B9AE20469847B5E62046FFF733FE4B
:109E1000B1E600BF08B5806A01234366036E012BDB
:109E200002D0FFF73AFE08BDB0F858104908FFF716
:109E30006BFEF8E708B50346806A1B681B6813F0E1
:109E4000200F29D10023A0F85A30026852E8003FC1
:109E500023F4807342E800310029F6D1026802F150
:109E6000080353E8003F23F00103083242E80031C1
:109E70000029F3D1026802F1080353E8003F23F000
:109E80004003083242E800310029F3D12023C0F812
:109E90008030036E012B07D000234366036E012B35
:109EA0000CD0FFF7F9FD08BD026852E8003F23F02F
:109EB000100342E800310029F6D1EDE7B0F8581060
:109EC000FFF722FEEFE7000010B504468368026941
:109ED000134342691343C2691343016808688F4AF8
:109EE00002401A430A602268536823F44053E16831
:109EF0000B435360A1692268894B9A4201D0236ABF
:109F00001943936823F430630B4393602368854AB5
:109F1000934226D0844A934237D0844A93424DD00C
:109F2000834A93425DD0834A93426CD07C4A9342E9
:109F30007ED010227A498B4200F0B380E069B0F500
:109F4000004F00F0E080082A00F24B81DFE812F0B9
:109F50001A01300118014901330149014901490140
:109F6000360102F55842D2F8882002F00302032A93
:109F700009D8DFE802F0020472060122DAE70422BF
:109F8000D8E70822D6E71022D4E702F5E632D2F865
:109F9000882002F00C020C2A0ED8DFE802F0070D30
:109FA0000D0D090D0D0D600D0D0D0B000022C1E70B
:109FB0000422BFE70822BDE71022BBE702F5E43226
:109FC000D2F8882002F03002202A4AD005D8002A90
:109FD00049D0102A49D10422ACE7302A47D10822BF
:109FE000A8E702F5E232D2F8882002F0C002802A07
:109FF0003FD004D8FAB3402A3FD104229AE7C02ABE
:10A000003DD1082296E702F5E032D2F8882002F42A
:10A010004072B2F5007F34D005D8A2B3B2F5807F8C
:10A0200033D1042286E7B2F5407F30D1082281E7A0
:10A0300002F5C832D2F8882002F44062B2F5006F0F
:10A0400027D005D83AB3B2F5806F26D1042271E744
:10A05000B2F5406F23D108226CE702226AE70222A0
:10A0600068E7022266E7002264E7102262E7102216
:10A0700060E702225EE700225CE710225AE7102226
:10A0800058E7022256E7002254E7102252E7102236
:10A0900050E702224EE700224CE710224AE7102246
:10A0A00048E7082A00F28D80DFE802F0088B2B8B4E
:10A0B000288B8B8B05004FF4004004E0FDF7B8FEC1
:10A0C000002800F08080626802EB420383427CD863
:10A0D000B0EB023F7BD8010E00025308C0184FF0CE
:10A0E000000341F10001FCF749F9A0F54072124B61
:10A0F0009A426ED82368D860002055E0FDF766FAD2
:10A10000DEE70E48DFE7082A65D8DFE802F01933FA
:10A110000564366464641D00084815E0F369FFEFC8
:10A1200000800040003801400044004000480040EA
:10A13000004C004000500040FFFC0F000024F400E1
:10A14000FDF776FE002848D06268530803EB400311
:10A15000B3FBF2F3A3F110014FF6EF7291423ED838
:10A160009AB222F00F02C3F3420313432268D36072
:10A17000002019E0FDF76EFEE4E7FDF727FAE1E7BE
:10A180001B4802E0FDF754FE68B3636800EB530020
:10A19000B0FBF3F0A0F110024FF6EF739A4224D80F
:10A1A000236880B2D86000200023A366E36610BD58
:10A1B000FDF750FEE8E7FDF709FAE5E74FF4004048
:10A1C000E3E70120F0E70020EEE70120ECE70120C3
:10A1D000EAE70120E8E70120E6E70020E4E70120C4
:10A1E000E2E70120E0E70020DEE70120DCE700BF36
:10A1F0000024F400436A13F0080F06D00268536885
:10A2000023F40043416B0B435360436A13F0010F87
:10A2100006D00268536823F40033816A0B4353600D
:10A22000436A13F0020F06D00268536823F48033A8
:10A23000C16A0B435360436A13F0040F06D00268EF
:10A24000536823F48023016B0B435360436A13F07C
:10A25000100F06D00268936823F48053816B0B4380
:10A260009360436A13F0200F06D00268936823F4CA
:10A270000053C16B0B439360436A13F0400F0AD045
:10A280000268536823F48013016C0B435360036C22
:10A29000B3F5801F0BD0436A13F0800F06D002681D
:10A2A000536823F40023816C0B43536070470268AA
:10A2B000536823F4C003416C0B435360EBE72DE973
:10A2C000F84305460E4617469946DDF820802B6870
:10A2D000DC6936EA04040CBF01240024BC4236D1F8
:10A2E000B8F1FF3FF3D0FDF70FF9A0EB09004045AF
:10A2F00030D8B8F1000F2FD02B681A6812F0040F75
:10A30000E5D0802EE3D0402EE1D0DA6912F0080FBC
:10A3100011D1DA6912F4006FD9D04FF400621A62D9
:10A320002846FFF77EFB2023C5F88430002385F8FC
:10A33000783003200CE008241C622846FFF771FBEC
:10A34000C5F88440002385F87830012000E0002023
:10A35000BDE8F8830320FBE70320F9E730B583B0BD
:10A3600004460023C0F88430FDF7CEF80546226885
:10A37000126812F0080F0FD123681B6813F0040F46
:10A3800026D12023E367C4F8803000202066606671
:10A3900084F8780003B030BD6FF07E43009303462D
:10A3A00000224FF400112046FFF789FF0028E3D078
:10A3B000226852E8003F23F0800342E80031002980
:10A3C000F6D12023E367002384F878300320E1E707
:10A3D0006FF07E4300932B4600224FF4800120460D
:10A3E000FFF76DFF0028CCD0226852E8003F23F42D
:10A3F000907342E800310029F6D1226802F1080387
:10A4000053E8003F23F00103083242E800310029FD
:10A41000F3D12023C4F88030002384F8783003205F
:10A42000B8E768B310B50446C36F03B32423E367EA
:10A430002268136823F001031360636AE3B92046BE
:10A44000FFF742FD012811D02268536823F490439E
:10A4500053602268936823F02A039360226813688C
:10A4600043F0010313602046FFF778FF10BD80F82A
:10A470007830FCF727FBD9E72046FFF7BBFEDEE785
:10A480000120704710B5044613464165A0F85820D6
:10A490000022C0F884202222C0F88020426F8AB1B6
:10A4A0001F49D162426F1F491163426F1E495163B8
:10A4B000426F002191630168426D2431406FFEF7C5
:10A4C00013FA20BB236943B1226852E8003F43F4EA
:10A4D000807342E800310029F6D1226802F10803B6
:10A4E00053E8003F43F00103083242E800310029FD
:10A4F000F3D1226802F1080353E8003F43F0400320
:10A50000083242E800310029F3D1002010BD1023A9
:10A51000C4F884302023C4F880300120F6E700BF5F
:10A52000359E0008159E00089F9A00087047D0F8D5
:10A530008030202B1FD110B50446F1B10AB901209B
:10A5400010BD0123036600234366FFF79BFF00282D
:10A55000F6D1236E012B01D00120F1E723681022F0
:10A560001A62226852E8003F43F0100342E80031CB
:10A570000029F6D1E4E7022070470120E0E700005F
:10A58000044B054A9A60D3F8882042F47002C3F85D
:10A590008820704700ED00E00058000810B5034621
:10A5A0000C4A0D490D48006840B10C48006803444E
:10A5B000521A934206D8094A136010BD0748084C46
:10A5C0000460F2E706F0B6FF0C2303604FF0FF30A3
:10A5D000F3E700BF008001200004000058040020C1
:10A5E000101200200120704708B506F0A3FF1623C3
:10A5F00003604FF0FF3008BD08B54FF0FF31FFF7A3
:10A60000F3FFFEE770B50C461646002506E0AFF3F3
:10A610000080214601F8010B01350C46B542F6DBFE
:10A62000304670BD70B50C461646002504E014F89F
:10A63000010BAFF300800135B542F8DB304670BD49
:10A640004FF0FF3070474FF400534B6000207047CD
:10A65000012070470020704770B58EB0564806F054
:10A6600011FE564C23685B6800265E61544D2868D5
:10A6700000F0C6F92368586800F042FA32462968AB
:10A68000206803F079FF4F4B1870002867D14E4BBC
:10A690005A6C0A929A6C0B92DA6C0C921B6D0D93A9
:10A6A000474B1A68931C0AA94448006803F080FFCE
:10A6B000444B1870002859D1414B1A6811785170D9
:10A6C000002109911B6809AA07925B7806930591FE
:10A6D0004FF4FA7304934FF47A720392029342F2A6
:10A6E000111301930091394B1B680A4633480068E7
:10A6F00003F07CFF334B187010B110F1130F3BD1F6
:10A700002E4B18682E4B1B685B78C16909AA009212
:10A710002E4A126804F03AF82A4B1870002839D1F2
:10A72000274B1B685868FEF789FC244B1B681B6885
:10A73000002B3DD1214B1B68586800F068F9244874
:10A7400006F0A0FD234B1B68986806F05DFCFCF743
:10A75000DBFE214B1860214B1860002004E001460D
:10A760001F4806F027FD01200EB070BD01461D48B0
:10A7700006F020FD0220F7E710F10C0F05D001468E
:10A78000194806F017FD0320EEE70999174806F06F
:10A7900011FDF8E710F10C0F05D00146144806F042
:10A7A00009FD0420E0E70999104806F003FDF8E7E9
:10A7B000104806F067FDBDE7202E01086804002060
:10A7C0006C0400205C040020240200201000002003
:10A7D000402F0108E40300206004002064040020EE
:10A7E000482E0108702E0108C42E01089C2E010875
:10A7F000F02E0108182F010800B583B00E4B186029
:10A8000001A9002003F00FFE0C4B186070B10199F4
:10A810000B4806F0CFFC084B1B68084A12685A61C7
:10A82000FFF71AFF002003B05DF804FB054806F0AF
:10A8300029FD0120F7E700BF6C0400206804002018
:10A840007C2F01085C2F010810B5FCF75DFE1D4B45
:10A8500018601D4B1A68904200D110BD821A186012
:10A860001A4C00234FF47A7101FB02F2194620685A
:10A8700004F016F821688B6B5B7A154A1268DB09C5
:10A8800053748B6B9B7ADB091374012807D0022861
:10A89000E3D1104806F0F6FCFEF7DAF9DDE7506880
:10A8A000FEF712FC0A4C206800F0AAF8074B186863
:10A8B00003F080FD084806F0E5FC2068FFF79CFFE8
:10A8C000CBE700BF6004002064040020680400207F
:10A8D0006C040020CC2F0108A42F010838B5154BBB
:10A8E0001A685268EFF31081516372B618680368F2
:10A8F00013B943685B6933B90E4B1B685B685B6BCC
:10A9000083F3108838BD00224FF47A7104F08CF87C
:10A910000446084D00234FF47A720146286804F07B
:10A92000A9F800234FF47A722146286804F0CDF884
:10A93000E2E700BF6804002030B583B005460C464E
:10A9400003689868FCF78BFB10B9002003B030BD9A
:10A950000C4900234B608B6023790B612368C3F3A0
:10A960000A030B60224652F8053B9B0B03F00203DF
:10A97000CB60286801AB8068FCF7FCFAB0FA80F085
:10A980004009E3E78C04002030B585B00DF10503E4
:10A99000194AFCF77DFB88B90546174B1C68DB6834
:10A9A000022B0DD000231C430094134B1B698DF820
:10A9B0000430124B1B689A692AB100BE05B030BD45
:10A9C0004FF40043EFE75A681B894BB1118861408F
:10A9D0005088014203D0013B9BB20C32F5E70125C0
:10A9E000002DEBD0002AE9D09368002BE6D0694611
:10A9F00050689847E2E700BF70040020A4040020DC
:10AA000020B108B58068FCF784FA08BD7047036878
:10AA100043B110B504469868FCF74DFA08B9012314
:10AA2000636110BD7047000070B58AB00E9DBDF81F
:10AA30003CE0002852D00C460146002A51D0002D9F
:10AA400052D004602D4801604A600B81CD60A1F8AE
:10AA500010E00020488248618861C86101260E62CA
:10AA60008884886211E000EB400C4FEA8C0602EB10
:10AA70008C0C002191534FF6FF76ACF80260CCF8B5
:10AA80000410CCF80810013080B29842EBD30023B8
:10AA900007E003EB430205EBC20200211161013321
:10AAA0009BB27345F5D3E36898470023059306935B
:10AAB0000122079200930193029303930493089257
:10AAC0000E2309936946A068FCF772F978B913213F
:10AAD000A068FCF792FB68B90AB070BD4FF0FF3078
:10AAE000FAE74FF0FF30F7E74FF0FF30F4E74FF0B1
:10AAF000FF30F1E74FF0FF30EEE700BFA404002085
:10AB000030B108B5036813B19868FCF702FA08BDC4
:10AB10007047000030B5049C059D30B384463CB3BB
:10AB20004DB30089884229D9DCF8040001EB4101CA
:10AB30004FEA810E00EB81014C608D60C2F30A0286
:10AB4000039C84B1104C224320F80E20C3F30A0367
:10AB50006FEA43436FEA53434B80DCF8183083B10C
:10AB600000BF00200EE00024EDE74FF0FF3009E0C9
:10AB70004FF0FF3006E04FF0FF3003E04FF0FF30C2
:10AB800000E0002030BD00BF0080FFFF8446E8B138
:10AB9000008A88421BD910B4DCF80C4001EB41015B
:10ABA0004FEAC10C04EBC100C2F30A020BB14FF42F
:10ABB0000043134344F80C309DF804300371002324
:10ABC0000361029B43615DF8044B704770470020AE
:10ABD000704770B504460D460B6943B1036ABBB9B3
:10ABE000438A43F0080343826FF0080600E0002622
:10ABF000EFF31083E36272B629462046FFF79CFE0E
:10AC000048B16B69E361E36A83F31088304670BD35
:10AC10006FF00806ECE701232B61A38C9BB2013394
:10AC20009BB2A384EFE710B4EFF31083C36272B654
:10AC3000C46914B10023C3610124838C9BB2C3B1E6
:10AC4000038A01E0013B9BB29BB1C26803EB430165
:10AC500002EBC10211690029F4D051690029F1D039
:10AC600000211161828C92B2013A92B28284022454
:10AC7000E8E7C36A83F310881CB1438A43F080037A
:10AC800043825DF8044B704703689B681B689A69B0
:10AC900002F00701836A8B4207D0438A816212F077
:10ACA000040F03D043F004034382704723F441733D
:10ACB00023F003039BB212F0010F03D043F480731F
:10ACC00043F0010312F0020FEED043F4007343F09F
:10ACD0000203E9E708B500221146FFF755FE08BD5B
:10ACE00008B500220121FFF74FFE08BD00230362D3
:10ACF000C361838C9BB22BB370B50646C568EFF376
:10AD00001083C36272B6048A02E0013CA4B2183513
:10AD100094B12B69002BF8D029463046FFF70CFE82
:10AD20000028F2D000232B61B38C9BB2013B9BB275
:10AD3000B3846B69F361E8E70023B384F36A83F3B8
:10AD4000108870BD7047000008B50121024B1868DB
:10AD5000FFF7CCFF08BD00BFA404002008B5012107
:10AD6000024B1868FFF7C2FF08BD00BFA404002013
:10AD700008B50121024B1868FFF7B8FF08BD00BFF6
:10AD8000A40400208446B0B1407CB0B9B9B1032A14
:10AD900017D9C3B1DCF80420506A48B1002092F8FA
:10ADA0002820803202430A6004221A600020704783
:10ADB0004FF00040F3E70920704709207047092051
:10ADC0007047092070470920704778B3844679B3EB
:10ADD00083B3032A02D8407C70BB7AB310B5DCF889
:10ADE000040090F81CE0BEF1010F29D99CF8114035
:10ADF00094B190F82020944224D8427F121B94B240
:10AE0000002A10DB72451FDA806950F832200A6090
:10AE100004221A60002010BD90F820200A70012240
:10AE20001A600020F7E7744422B2EDE7092070476A
:10AE30000920704709207047092070470920704792
:10AE40000920E8E71920E6E70920E4E7844670B125
:10AE5000407C70B979B1012A0FD183B10A7882B9E7
:10AE6000DCF8042082F8200001221A6070470920D3
:10AE70007047092070470920704709207047092052
:10AE800070470F20704700002DE9F04F85B09DF806
:10AE900038B0DDF83C90DDF844A09DF848800028EB
:10AEA00074D00D4616461F460446002A71D0002B6A
:10AEB0005ED0B9F1000F6FD0002D70D0B8F1000F47
:10AEC00070D018F0800F70D1BAF1000F70D05022FE
:10AED0000021204606F0D0FA6561002301221946C0
:10AEE000304600F0ECFDE060002847D00021017002
:10AEF000A76184F81CB001230093042303AA4846E9
:10AF000000F0AAFD024618B92E4B03990B403BB145
:10AF1000139B1BB1B9F8003013990B60002A4AD17A
:10AF2000039BDB43DB0F63622463274B6363274B85
:10AF3000A36304F13003C9F8083084F828800023A3
:10AF400001930822009208F18002BDF840102846C3
:10AF5000FFF71CFEE06288B324641D4B63641D4B45
:10AF6000A3644034CAF80840002005B0BDE8F08F63
:10AF7000BBF1010F9DD94FF0FF30F6E7139B13B1E2
:10AF80003388139A13606FF00B00EEE74FF0FF3039
:10AF9000EBE74FF0FF30E8E74FF0FF30E5E74FF029
:10AFA000FF30E2E74FF0FF30DFE74FF0FF30DCE744
:10AFB0004FF0FF30D9E76FF00B00D6E74FF0FF30CE
:10AFC000D3E700BF00F8FF7F85AD00086FB8000829
:10AFD000CBAD00084DAE000800285ED030B58446E9
:10AFE000D40802F007050120A840C0B24F2A04D9B6
:10AFF0000392012005244FF4C24325461CF804E0C7
:10B000000EEA0004A9B3002C46D143EA0263DCF83F
:10B010001420EFF31084146372B669B31CF8052092
:10B0200002430CF805209CF81C1001292FD99CF82C
:10B030001D00421CD2B2914200D800229CF81E1082
:10B04000914221D0DCF8181041F83030DCF818308B
:10B0500003EBC003039959608CF81D209CF8202055
:10B060009CF81C30013B9A4211DA01328CF8202006
:10B070000DE08CB10023C8E71CF80520C04340B2A6
:10B0800002400CF80520CEE701238CF81F30DCF8D5
:10B0900014301B6B83F3108830BD7047F0B583B05C
:10B0A00004460F4643695E8A058AB54217D075404B
:10B0B000068240F201131D422CD115F0020F35D14A
:10B0C00015F0040F3DD115F0080F45D115F0800F94
:10B0D0004DD115F4007F55D115F4006F5DD1637922
:10B0E00003B1012362880AB143F0100322890AB137
:10B0F00043F08003E268137057B1227F012A07D919
:10B10000A57F627FAA4203D0E26A1269002A4ED06C
:10B1100003B0F0BD1E424FF0000300934FF0010258
:10B1200014BF11461946FFF757FFC6E700230093E7
:10B1300048F220130722C6F340012046FFF74CFFD8
:10B14000BEE70023009348F240131222C6F38001A9
:10B150002046FFF741FFB6E70023009348F21013A3
:10B160001422C6F3C0012046FFF736FFAEE70023E6
:10B1700000934FF401431522C6F3C0112046FFF798
:10B180002BFFA6E70023009348F220130622C6F304
:10B1900040212046FFF720FF9EE700230093132362
:10B1A0001A46C6F3C0212046FFF716FF97E7A169AC
:10B1B00051F8352042EA034241F83520E36AA2699A
:10B1C00002EBC50052F835104268C3F80510C3F809
:10B1D0000920E16A6069FFF7FCFC0135EDB2237FCD
:10B1E000AB4200D80025A577E37F012B0DD0022BC1
:10B1F0008ED1637FAB428BD10021E17700910B466A
:10B2000020222046FFF7E8FE82E70223E3770023AF
:10B2100000934FF48053202201212046FFF7DCFEEB
:10B2200076E70B79012B00D0704791F90530437018
:10B230000123C360F8E700002DE9F04389B000283E
:10B2400057D00D4616461F46044690F8089089458B
:10B2500052D903B172BB6368290103EB05105E5438
:10B260004FF47A7307FB03F38360FF2242700022DE
:10B27000C2603EB333B306F5E0620123837024E07D
:10B280000CF1010C5FFA8CFCE14517D9636803EB04
:10B290000C1E9EE80F000DF1200E0EE90F00AC45CC
:10B2A000EED0002AECD09DF81030B342E8D16FF018
:10B2B0000B08E5E74FF0000CE046E5E7B8F1000FBA
:10B2C00013D1C8E7002282608270A08B63680B44B0
:10B2D00029180B48029001930023009340F2FF735A
